:02000000AB282B
:10000600710DF80DF90D7408F8027508031C750FCB
:10001600F902F00DF10D0F30FC00710DF80DF90D20
:100026007408701C1C28F8027508031C750FF90269
:100036002128F80775080318750FF907F00DF10D5B
:10004600FC0B102870182D287408F807750803187B
:08005600750FF9070000080016
:0E005E00831203132A088A0029088200080072
:10006C002F208A110A128000840AA90A0319AA0AED
:08007C00F003031D3628080003
:10008400831203137408003A031D51287508003ABB
:10009400031D5128FF30F0007F30F100AA2883129D
:1000A4000313FD01F901F801710870040319003408
:1000B40071087506FA00FA1BFD09FB01F51F672894
:1000C400F409F509F40A0319F50AF11F6E28F00979
:1000D400F109F00A0319F10A71087504FA00FA1B10
:1000E400832803207B189628FD1F0034F009F109AA
:1000F400F00A0319F10AF809F909F80A0319F90AC7
:100104000034F51F9228F11B8E287108F90070083D
:10011400F800F101F0017628F101F001F00A003451
:10012400F109F009FB0A7328F80A0319F90A74089B
:100134007802031D762875087902031D7628F901D3
:10014400F801F00A0319F10AF11F76280000FF34C0
:020154000800A1
:10015600F93083120313A000A430A100B030A2002E
:100166009930A3009230A4008230A500F830A60092
:100176008030A7009030A800AF01B001B101B201F4
:1001860083168801870186018312860188018810FB
:10019600AB01AC018030F00080302C067002031DEC
:1001A600D6282B08633C031C442900302C06031D6B
:1001B600DE280F302B06031DE1288814881404302E
:1001C600FB000C30FC003330FD00FD0BE828FC0B77
:1001D600E828FB0BE8280000000088100A30F4002D
:1001E6000030F5002B08F0002C08F10042207008C2
:1001F600B1007108B2000A30F4000030F5002B0897
:10020600F0002C08F10042207808F0007908F1008F
:100216007008AF007108B000AD01AE0180302E0647
:10022600F00080307002031D1A2932302D020318A7
:10023600402907143108203E8400000886001A3041
:10024600FC00F830FD00FD0B2629FC0B26290000DA
:10025600071087142F08203E8400000886001A30F5
:10026600FC00F830FD00FD0B3629FC0B362900009A
:100276008710AD0A0319AE0A1129AB0A0319AC0A95
:06028600CD28CB2845291C
:02400E004A2F37
:00000001FF
