:020000001628C0
:0E000600831203132B088A002A0882000800C8
:1000140003208A110A128000840AAA0A0319AB0A6F
:08002400F003031D0A28080087
:10002C00C03083120313A000F930A100A430A20049
:10003C00B030A3009930A4009230A5008230A60005
:10004C00F830A7008030A8009030A900AC01AD01B9
:10005C0083168601FF308800870183128701860191
:10006C0086140610081863280330FB000830FC00C7
:10007C007730FD00FD0B4028FC0B4028FB0B402883
:10008C000818632880302D06F00080307002031DA4
:10009C00512809302C0203185628AC0A0319AD0A52
:1000AC0080302D06F00080307002031D5F28053073
:1000BC002C02031C63288610061488188C28033025
:1000CC00FB000830FC007730FD00FD0B6B28FC0BAF
:1000DC006B28FB0B6B2888188C2800302D06031D11
:1000EC00792800302C0603197F280130AC02031C40
:1000FC00AD0380302D06F00080307002031D88287F
:10010C0005302C0203188C28861406102C08203E6F
:0A011C0084000008870038289228AC
:02400E004A2F37
:00000001FF
